{
  "_format": "hh-sol-artifact-1",
  "contractName": "CampaignFactory",
  "sourceName": "contracts/CampaignFactory.sol",
  "abi": [
    {
      "anonymous": false,
      "inputs": [
        {
          "indexed": true,
          "internalType": "address",
          "name": "campaignAddress",
          "type": "address"
        },
        {
          "indexed": true,
          "internalType": "address",
          "name": "creator",
          "type": "address"
        },
        {
          "indexed": false,
          "internalType": "uint256",
          "name": "targetAmount",
          "type": "uint256"
        },
        {
          "indexed": false,
          "internalType": "string",
          "name": "metadataCID",
          "type": "string"
        }
      ],
      "name": "CampaignCreated",
      "type": "event"
    },
    {
      "inputs": [
        {
          "internalType": "uint256",
          "name": "_targetAmount",
          "type": "uint256"
        },
        {
          "internalType": "address",
          "name": "_beneficiary",
          "type": "address"
        },
        {
          "internalType": "address",
          "name": "_verifier",
          "type": "address"
        },
        {
          "internalType": "string",
          "name": "_metadataCID",
          "type": "string"
        }
      ],
      "name": "createCampaign",
      "outputs": [],
      "stateMutability": "nonpayable",
      "type": "function"
    },
    {
      "inputs": [
        {
          "internalType": "uint256",
          "name": "",
          "type": "uint256"
        }
      ],
      "name": "deployedCampaigns",
      "outputs": [
        {
          "internalType": "address",
          "name": "",
          "type": "address"
        }
      ],
      "stateMutability": "view",
      "type": "function"
    },
    {
      "inputs": [],
      "name": "getCampaigns",
      "outputs": [
        {
          "internalType": "address[]",
          "name": "",
          "type": "address[]"
        }
      ],
      "stateMutability": "view",
      "type": "function"
    }
  ],
  "bytecode": "0x6080604052348015600f57600080fd5b50612f4b8061001f6000396000f3fe608060405234801561001057600080fd5b50600436106100415760003560e01c80630cb0926814610046578063339d50a514610062578063a6b0363314610092575b600080fd5b610060600480360381019061005b9190610489565b6100b0565b005b61007c6004803603810190610077919061050c565b6101c1565b6040516100899190610548565b60405180910390f35b61009a610200565b6040516100a79190610621565b60405180910390f35b600084338486856040516100c39061028e565b6100d19594939291906106d1565b604051809103906000f0801580156100ed573d6000803e3d6000fd5b5090506000819080600181540180825580915050600190039060005260206000200160009091909190916101000a81548173ffffffffffffffffffffffffffffffffffffffff021916908373ffffffffffffffffffffffffffffffffffffffff1602179055503373ffffffffffffffffffffffffffffffffffffffff168173ffffffffffffffffffffffffffffffffffffffff167f8aa065902e6578cf20a2e4ebdaca668ae46d2b037cedabe830e4aeb71a03e26087856040516101b292919061072b565b60405180910390a35050505050565b600081815481106101d157600080fd5b906000526020600020016000915054906101000a900473ffffffffffffffffffffffffffffffffffffffff1681565b6060600080548060200260200160405190810160405280929190818152602001828054801561028457602002820191906000526020600020905b8160009054906101000a900473ffffffffffffffffffffffffffffffffffffffff1673ffffffffffffffffffffffffffffffffffffffff168152602001906001019080831161023a575b5050505050905090565b6127ba8061075c83390190565b6000604051905090565b600080fd5b600080fd5b6000819050919050565b6102c2816102af565b81146102cd57600080fd5b50565b6000813590506102df816102b9565b92915050565b600073ffffffffffffffffffffffffffffffffffffffff82169050919050565b6000610310826102e5565b9050919050565b61032081610305565b811461032b57600080fd5b50565b60008135905061033d81610317565b92915050565b600080fd5b600080fd5b6000601f19601f8301169050919050565b7f4e487b7100000000000000000000000000000000000000000000000000000000600052604160045260246000fd5b6103968261034d565b810181811067ffffffffffffffff821117156103b5576103b461035e565b5b80604052505050565b60006103c861029b565b90506103d4828261038d565b919050565b600067ffffffffffffffff8211156103f4576103f361035e565b5b6103fd8261034d565b9050602081019050919050565b82818337600083830152505050565b600061042c610427846103d9565b6103be565b90508281526020810184848401111561044857610447610348565b5b61045384828561040a565b509392505050565b600082601f8301126104705761046f610343565b5b8135610480848260208601610419565b91505092915050565b600080600080608085870312156104a3576104a26102a5565b5b60006104b1878288016102d0565b94505060206104c28782880161032e565b93505060406104d38782880161032e565b925050606085013567ffffffffffffffff8111156104f4576104f36102aa565b5b6105008782880161045b565b91505092959194509250565b600060208284031215610522576105216102a5565b5b6000610530848285016102d0565b91505092915050565b61054281610305565b82525050565b600060208201905061055d6000830184610539565b92915050565b600081519050919050565b600082825260208201905092915050565b6000819050602082019050919050565b61059881610305565b82525050565b60006105aa838361058f565b60208301905092915050565b6000602082019050919050565b60006105ce82610563565b6105d8818561056e565b93506105e38361057f565b8060005b838110156106145781516105fb888261059e565b9750610606836105b6565b9250506001810190506105e7565b5085935050505092915050565b6000602082019050818103600083015261063b81846105c3565b905092915050565b61064c816102af565b82525050565b600081519050919050565b600082825260208201905092915050565b60005b8381101561068c578082015181840152602081019050610671565b60008484015250505050565b60006106a382610652565b6106ad818561065d565b93506106bd81856020860161066e565b6106c68161034d565b840191505092915050565b600060a0820190506106e66000830188610643565b6106f36020830187610539565b6107006040830186610539565b61070d6060830185610539565b818103608083015261071f8184610698565b90509695505050505050565b60006040820190506107406000830185610643565b81810360208301526107528184610698565b9050939250505056fe608060405234801561001057600080fd5b506040516127ba3803806127ba83398181016040528101906100329190610561565b60016000819055506000851161007d576040517f08c379a000000000000000000000000000000000000000000000000000000000815260040161007490610655565b60405180910390fd5b600073ffffffffffffffffffffffffffffffffffffffff168473ffffffffffffffffffffffffffffffffffffffff16036100ec576040517f08c379a00000000000000000000000000000000000000000000000000000000081526004016100e3906106c1565b60405180910390fd5b600073ffffffffffffffffffffffffffffffffffffffff168373ffffffffffffffffffffffffffffffffffffffff160361015b576040517f08c379a00000000000000000000000000000000000000000000000000000000081526004016101529061072d565b60405180910390fd5b600073ffffffffffffffffffffffffffffffffffffffff168273ffffffffffffffffffffffffffffffffffffffff16036101ca576040517f08c379a00000000000000000000000000000000000000000000000000000000081526004016101c190610799565b60405180910390fd5b84600481905550836001806101000a81548173ffffffffffffffffffffffffffffffffffffffff021916908373ffffffffffffffffffffffffffffffffffffffff16021790555082600260006101000a81548173ffffffffffffffffffffffffffffffffffffffff021916908373ffffffffffffffffffffffffffffffffffffffff16021790555081600360006101000a81548173ffffffffffffffffffffffffffffffffffffffff021916908373ffffffffffffffffffffffffffffffffffffffff16021790555080600690816102a291906109d0565b5060018060006101000a81548160ff021916908360058111156102c8576102c7610aa2565b5b0217905550306040516102da9061034b565b6102e49190610ae0565b604051809103906000f080158015610300573d6000803e3d6000fd5b50600760006101000a81548173ffffffffffffffffffffffffffffffffffffffff021916908373ffffffffffffffffffffffffffffffffffffffff1602179055505050505050610afb565b6108e380611ed783390190565b6000604051905090565b600080fd5b600080fd5b6000819050919050565b61037f8161036c565b811461038a57600080fd5b50565b60008151905061039c81610376565b92915050565b600073ffffffffffffffffffffffffffffffffffffffff82169050919050565b60006103cd826103a2565b9050919050565b6103dd816103c2565b81146103e857600080fd5b50565b6000815190506103fa816103d4565b92915050565b600080fd5b600080fd5b6000601f19601f8301169050919050565b7f4e487b7100000000000000000000000000000000000000000000000000000000600052604160045260246000fd5b6104538261040a565b810181811067ffffffffffffffff821117156104725761047161041b565b5b80604052505050565b6000610485610358565b9050610491828261044a565b919050565b600067ffffffffffffffff8211156104b1576104b061041b565b5b6104ba8261040a565b9050602081019050919050565b60005b838110156104e55780820151818401526020810190506104ca565b60008484015250505050565b60006105046104ff84610496565b61047b565b9050828152602081018484840111156105205761051f610405565b5b61052b8482856104c7565b509392505050565b600082601f83011261054857610547610400565b5b81516105588482602086016104f1565b91505092915050565b600080600080600060a0868803121561057d5761057c610362565b5b600061058b8882890161038d565b955050602061059c888289016103eb565b94505060406105ad888289016103eb565b93505060606105be888289016103eb565b925050608086015167ffffffffffffffff8111156105df576105de610367565b5b6105eb88828901610533565b9150509295509295909350565b600082825260208201905092915050565b7f546172676574203e203000000000000000000000000000000000000000000000600082015250565b600061063f600a836105f8565b915061064a82610609565b602082019050919050565b6000602082019050818103600083015261066e81610632565b9050919050565b7f496e76616c69642063726561746f720000000000000000000000000000000000600082015250565b60006106ab600f836105f8565b91506106b682610675565b602082019050919050565b600060208201905081810360008301526106da8161069e565b9050919050565b7f496e76616c696420766572696669657200000000000000000000000000000000600082015250565b60006107176010836105f8565b9150610722826106e1565b602082019050919050565b600060208201905081810360008301526107468161070a565b9050919050565b7f496e76616c69642062656e656669636961727900000000000000000000000000600082015250565b60006107836013836105f8565b915061078e8261074d565b602082019050919050565b600060208201905081810360008301526107b281610776565b9050919050565b600081519050919050565b7f4e487b7100000000000000000000000000000000000000000000000000000000600052602260045260246000fd5b6000600282049050600182168061080b57607f821691505b60208210810361081e5761081d6107c4565b5b50919050565b60008190508160005260206000209050919050565b60006020601f8301049050919050565b600082821b905092915050565b6000600883026108867fffffffffffffffffffffffffffffffffffffffffffffffffffffffffffffffff82610849565b6108908683610849565b95508019841693508086168417925050509392505050565b6000819050919050565b60006108cd6108c86108c38461036c565b6108a8565b61036c565b9050919050565b6000819050919050565b6108e7836108b2565b6108fb6108f3826108d4565b848454610856565b825550505050565b600090565b610910610903565b61091b8184846108de565b505050565b5b8181101561093f57610934600082610908565b600181019050610921565b5050565b601f8211156109845761095581610824565b61095e84610839565b8101602085101561096d578190505b61098161097985610839565b830182610920565b50505b505050565b600082821c905092915050565b60006109a760001984600802610989565b1980831691505092915050565b60006109c08383610996565b9150826002028217905092915050565b6109d9826107b9565b67ffffffffffffffff8111156109f2576109f161041b565b5b6109fc82546107f3565b610a07828285610943565b600060209050601f831160018114610a3a5760008415610a28578287015190505b610a3285826109b4565b865550610a9a565b601f198416610a4886610824565b60005b82811015610a7057848901518255600182019150602085019450602081019050610a4b565b86831015610a8d5784890151610a89601f891682610996565b8355505b6001600288020188555050505b505050505050565b7f4e487b7100000000000000000000000000000000000000000000000000000000600052602160045260246000fd5b610ada816103c2565b82525050565b6000602082019050610af56000830184610ad1565b92915050565b6113cd80610b0a6000396000f3fe6080604052600436106100c25760003560e01c8063953b8fb81161007f578063c59ee1dc11610059578063c59ee1dc1461020e578063ed88c68e14610239578063fbbf93a014610243578063fbfa77cf14610275576100c2565b8063953b8fb8146101a1578063aec08289146101cc578063c19d93fb146101e3576100c2565b806302d05d3f146100c75780630903abf5146100f25780632b7ac3f31461010957806338af3eed1461013457806358871c461461015f57806369d895751461018a575b600080fd5b3480156100d357600080fd5b506100dc6102a0565b6040516100e99190610d96565b60405180910390f35b3480156100fe57600080fd5b506101076102c4565b005b34801561011557600080fd5b5061011e61043f565b60405161012b9190610d96565b60405180910390f35b34801561014057600080fd5b50610149610465565b6040516101569190610d96565b60405180910390f35b34801561016b57600080fd5b5061017461048b565b6040516101819190610e41565b60405180910390f35b34801561019657600080fd5b5061019f610519565b005b3480156101ad57600080fd5b506101b6610739565b6040516101c39190610e7c565b60405180910390f35b3480156101d857600080fd5b506101e161073f565b005b3480156101ef57600080fd5b506101f86108b8565b6040516102059190610f0e565b60405180910390f35b34801561021a57600080fd5b506102236108cb565b6040516102309190610e7c565b60405180910390f35b6102416108d1565b005b34801561024f57600080fd5b50610258610b8a565b60405161026c989796959493929190610f29565b60405180910390f35b34801561028157600080fd5b5061028a610cdf565b604051610297919061100d565b60405180910390f35b60018054906101000a900473ffffffffffffffffffffffffffffffffffffffff1681565b600260009054906101000a900473ffffffffffffffffffffffffffffffffffffffff1673ffffffffffffffffffffffffffffffffffffffff163373ffffffffffffffffffffffffffffffffffffffff1614610354576040517f08c379a000000000000000000000000000000000000000000000000000000000815260040161034b90611074565b60405180910390fd5b600380600581111561036957610368610e97565b5b600160009054906101000a900460ff16600581111561038b5761038a610e97565b5b146103cb576040517f08c379a00000000000000000000000000000000000000000000000000000000081526004016103c2906110e0565b60405180910390fd5b6004600160006101000a81548160ff021916908360058111156103f1576103f0610e97565b5b02179055507fafa725e7f44cadb687a7043853fa1a7e7b8f0da74ce87ec546e9420f04da8c1e600160009054906101000a900460ff166040516104349190610f0e565b60405180910390a150565b600260009054906101000a900473ffffffffffffffffffffffffffffffffffffffff1681565b600360009054906101000a900473ffffffffffffffffffffffffffffffffffffffff1681565b600680546104989061112f565b80601f01602080910402602001604051908101604052809291908181526020018280546104c49061112f565b80156105115780601f106104e657610100808354040283529160200191610511565b820191906000526020600020905b8154815290600101906020018083116104f457829003601f168201915b505050505081565b610521610d05565b600480600581111561053657610535610e97565b5b600160009054906101000a900460ff16600581111561055857610557610e97565b5b14610598576040517f08c379a000000000000000000000000000000000000000000000000000000000815260040161058f906110e0565b60405180910390fd5b6005600160006101000a81548160ff021916908360058111156105be576105bd610e97565b5b02179055507fafa725e7f44cadb687a7043853fa1a7e7b8f0da74ce87ec546e9420f04da8c1e600160009054906101000a900460ff166040516106019190610f0e565b60405180910390a1600760009054906101000a900473ffffffffffffffffffffffffffffffffffffffff1673ffffffffffffffffffffffffffffffffffffffff1663d6e982e5600360009054906101000a900473ffffffffffffffffffffffffffffffffffffffff166005546040518363ffffffff1660e01b815260040161068a929190611181565b600060405180830381600087803b1580156106a457600080fd5b505af11580156106b8573d6000803e3d6000fd5b50505050600360009054906101000a900473ffffffffffffffffffffffffffffffffffffffff1673ffffffffffffffffffffffffffffffffffffffff167f221c08a06b07a64803b3787861a3f276212fcccb51c2e6234077a9b8cb13047a6005546040516107269190610e7c565b60405180910390a250610737610d4b565b565b60045481565b60018054906101000a900473ffffffffffffffffffffffffffffffffffffffff1673ffffffffffffffffffffffffffffffffffffffff163373ffffffffffffffffffffffffffffffffffffffff16146107cd576040517f08c379a00000000000000000000000000000000000000000000000000000000081526004016107c4906111f6565b60405180910390fd5b60028060058111156107e2576107e1610e97565b5b600160009054906101000a900460ff16600581111561080457610803610e97565b5b14610844576040517f08c379a000000000000000000000000000000000000000000000000000000000815260040161083b906110e0565b60405180910390fd5b6003600160006101000a81548160ff0219169083600581111561086a57610869610e97565b5b02179055507fafa725e7f44cadb687a7043853fa1a7e7b8f0da74ce87ec546e9420f04da8c1e600160009054906101000a900460ff166040516108ad9190610f0e565b60405180910390a150565b600160009054906101000a900460ff1681565b60055481565b6108d9610d05565b60018060058111156108ee576108ed610e97565b5b600160009054906101000a900460ff1660058111156109105761090f610e97565b5b14610950576040517f08c379a0000000000000000000000000000000000000000000000000000000008152600401610947906110e0565b60405180910390fd5b60003411610993576040517f08c379a000000000000000000000000000000000000000000000000000000000815260040161098a90611262565b60405180910390fd5b34600560008282546109a591906112b1565b925050819055506000600760009054906101000a900473ffffffffffffffffffffffffffffffffffffffff1673ffffffffffffffffffffffffffffffffffffffff16346040516109f490611316565b60006040518083038185875af1925050503d8060008114610a31576040519150601f19603f3d011682016040523d82523d6000602084013e610a36565b606091505b5050905080610a7a576040517f08c379a0000000000000000000000000000000000000000000000000000000008152600401610a7190611377565b60405180910390fd5b3373ffffffffffffffffffffffffffffffffffffffff167f264f630d9efa0d07053a31163641d9fcc0adafc9d9e76f1c37c2ce3a558d2c5234604051610ac09190610e7c565b60405180910390a260045460055410610b7e576002600160006101000a81548160ff02191690836005811115610af957610af8610e97565b5b02179055507ffbfd8ab7c24300fa9888cd721c8565a7da56759384781283684dcf7c7c4a846b600554604051610b2f9190610e7c565b60405180910390a17fafa725e7f44cadb687a7043853fa1a7e7b8f0da74ce87ec546e9420f04da8c1e600160009054906101000a900460ff16604051610b759190610f0e565b60405180910390a15b5050610b88610d4b565b565b60008060008060008060606000600160009054906101000a900460ff1660045460055460018054906101000a900473ffffffffffffffffffffffffffffffffffffffff16600260009054906101000a900473ffffffffffffffffffffffffffffffffffffffff16600360009054906101000a900473ffffffffffffffffffffffffffffffffffffffff166006600760009054906101000a900473ffffffffffffffffffffffffffffffffffffffff16818054610c459061112f565b80601f0160208091040260200160405190810160405280929190818152602001828054610c719061112f565b8015610cbe5780601f10610c9357610100808354040283529160200191610cbe565b820191906000526020600020905b815481529060010190602001808311610ca157829003601f168201915b50505050509150975097509750975097509750975097509091929394959697565b600760009054906101000a900473ffffffffffffffffffffffffffffffffffffffff1681565b600260005403610d41576040517f3ee5aeb500000000000000000000000000000000000000000000000000000000815260040160405180910390fd5b6002600081905550565b6001600081905550565b600073ffffffffffffffffffffffffffffffffffffffff82169050919050565b6000610d8082610d55565b9050919050565b610d9081610d75565b82525050565b6000602082019050610dab6000830184610d87565b92915050565b600081519050919050565b600082825260208201905092915050565b60005b83811015610deb578082015181840152602081019050610dd0565b60008484015250505050565b6000601f19601f8301169050919050565b6000610e1382610db1565b610e1d8185610dbc565b9350610e2d818560208601610dcd565b610e3681610df7565b840191505092915050565b60006020820190508181036000830152610e5b8184610e08565b905092915050565b6000819050919050565b610e7681610e63565b82525050565b6000602082019050610e916000830184610e6d565b92915050565b7f4e487b7100000000000000000000000000000000000000000000000000000000600052602160045260246000fd5b60068110610ed757610ed6610e97565b5b50565b6000819050610ee882610ec6565b919050565b6000610ef882610eda565b9050919050565b610f0881610eed565b82525050565b6000602082019050610f236000830184610eff565b92915050565b600061010082019050610f3f600083018b610eff565b610f4c602083018a610e6d565b610f596040830189610e6d565b610f666060830188610d87565b610f736080830187610d87565b610f8060a0830186610d87565b81810360c0830152610f928185610e08565b9050610fa160e0830184610d87565b9998505050505050505050565b6000819050919050565b6000610fd3610fce610fc984610d55565b610fae565b610d55565b9050919050565b6000610fe582610fb8565b9050919050565b6000610ff782610fda565b9050919050565b61100781610fec565b82525050565b60006020820190506110226000830184610ffe565b92915050565b7f4f6e6c7920766572696669657200000000000000000000000000000000000000600082015250565b600061105e600d83610dbc565b915061106982611028565b602082019050919050565b6000602082019050818103600083015261108d81611051565b9050919050565b7f496e76616c696420737461746520666f7220616374696f6e0000000000000000600082015250565b60006110ca601883610dbc565b91506110d582611094565b602082019050919050565b600060208201905081810360008301526110f9816110bd565b9050919050565b7f4e487b7100000000000000000000000000000000000000000000000000000000600052602260045260246000fd5b6000600282049050600182168061114757607f821691505b60208210810361115a57611159611100565b5b50919050565b600061116b82610d55565b9050919050565b61117b81611160565b82525050565b60006040820190506111966000830185611172565b6111a36020830184610e6d565b9392505050565b7f4f6e6c792063726561746f720000000000000000000000000000000000000000600082015250565b60006111e0600c83610dbc565b91506111eb826111aa565b602082019050919050565b6000602082019050818103600083015261120f816111d3565b9050919050565b7f446f6e6174696f6e206d757374206265203e2030000000000000000000000000600082015250565b600061124c601483610dbc565b915061125782611216565b602082019050919050565b6000602082019050818103600083015261127b8161123f565b9050919050565b7f4e487b7100000000000000000000000000000000000000000000000000000000600052601160045260246000fd5b60006112bc82610e63565b91506112c783610e63565b92508282019050808211156112df576112de611282565b5b92915050565b600081905092915050565b50565b60006113006000836112e5565b915061130b826112f0565b600082019050919050565b6000611321826112f3565b9150819050919050565b7f5661756c74207472616e73666572206661696c65640000000000000000000000600082015250565b6000611361601583610dbc565b915061136c8261132b565b602082019050919050565b6000602082019050818103600083015261139081611354565b905091905056fea264697066735822122041541c34dab0c3bd4cd374b23370cd069e31543035d6fc0f114e84a8abf8e91b64736f6c634300081b0033608060405234801561001057600080fd5b506040516108e33803806108e38339818101604052810190610032919061014a565b600073ffffffffffffffffffffffffffffffffffffffff168173ffffffffffffffffffffffffffffffffffffffff16036100a1576040517f08c379a0000000000000000000000000000000000000000000000000000000008152600401610098906101d4565b60405180910390fd5b806000806101000a81548173ffffffffffffffffffffffffffffffffffffffff021916908373ffffffffffffffffffffffffffffffffffffffff160217905550506101f4565b600080fd5b600073ffffffffffffffffffffffffffffffffffffffff82169050919050565b6000610117826100ec565b9050919050565b6101278161010c565b811461013257600080fd5b50565b6000815190506101448161011e565b92915050565b6000602082840312156101605761015f6100e7565b5b600061016e84828501610135565b91505092915050565b600082825260208201905092915050565b7f496e76616c69642063616d706169676e20616464726573730000000000000000600082015250565b60006101be601883610177565b91506101c982610188565b602082019050919050565b600060208201905081810360008301526101ed816101b1565b9050919050565b6106e0806102036000396000f3fe60806040526004361061002d5760003560e01c806358ae05cd14610087578063d6e982e5146100b257610082565b36610082573373ffffffffffffffffffffffffffffffffffffffff167f8e47b87b0ef542cdfa1659c551d88bad38aa7f452d2bbb349ab7530dfec8be8f346040516100789190610357565b60405180910390a2005b600080fd5b34801561009357600080fd5b5061009c6100db565b6040516100a991906103b3565b60405180910390f35b3480156100be57600080fd5b506100d960048036038101906100d4919061043d565b6100ff565b005b60008054906101000a900473ffffffffffffffffffffffffffffffffffffffff1681565b60008054906101000a900473ffffffffffffffffffffffffffffffffffffffff1673ffffffffffffffffffffffffffffffffffffffff163373ffffffffffffffffffffffffffffffffffffffff161461018d576040517f08c379a000000000000000000000000000000000000000000000000000000000815260040161018490610500565b60405180910390fd5b804710156101d0576040517f08c379a00000000000000000000000000000000000000000000000000000000081526004016101c79061056c565b60405180910390fd5b600073ffffffffffffffffffffffffffffffffffffffff168273ffffffffffffffffffffffffffffffffffffffff160361023f576040517f08c379a0000000000000000000000000000000000000000000000000000000008152600401610236906105d8565b60405180910390fd5b60008273ffffffffffffffffffffffffffffffffffffffff168260405161026590610629565b60006040518083038185875af1925050503d80600081146102a2576040519150601f19603f3d011682016040523d82523d6000602084013e6102a7565b606091505b50509050806102eb576040517f08c379a00000000000000000000000000000000000000000000000000000000081526004016102e29061068a565b60405180910390fd5b8273ffffffffffffffffffffffffffffffffffffffff167f221c08a06b07a64803b3787861a3f276212fcccb51c2e6234077a9b8cb13047a836040516103319190610357565b60405180910390a2505050565b6000819050919050565b6103518161033e565b82525050565b600060208201905061036c6000830184610348565b92915050565b600073ffffffffffffffffffffffffffffffffffffffff82169050919050565b600061039d82610372565b9050919050565b6103ad81610392565b82525050565b60006020820190506103c860008301846103a4565b92915050565b600080fd5b60006103de82610372565b9050919050565b6103ee816103d3565b81146103f957600080fd5b50565b60008135905061040b816103e5565b92915050565b61041a8161033e565b811461042557600080fd5b50565b60008135905061043781610411565b92915050565b60008060408385031215610454576104536103ce565b5b6000610462858286016103fc565b925050602061047385828601610428565b9150509250929050565b600082825260208201905092915050565b7f4f6e6c792043616d706169676e20436f6e74726163742063616e2072656c656160008201527f73652066756e6473000000000000000000000000000000000000000000000000602082015250565b60006104ea60288361047d565b91506104f58261048e565b604082019050919050565b60006020820190508181036000830152610519816104dd565b9050919050565b7f496e73756666696369656e74207661756c742062616c616e6365000000000000600082015250565b6000610556601a8361047d565b915061056182610520565b602082019050919050565b6000602082019050818103600083015261058581610549565b9050919050565b7f496e76616c69642062656e656669636961727900000000000000000000000000600082015250565b60006105c260138361047d565b91506105cd8261058c565b602082019050919050565b600060208201905081810360008301526105f1816105b5565b9050919050565b600081905092915050565b50565b60006106136000836105f8565b915061061e82610603565b600082019050919050565b600061063482610606565b9150819050919050565b7f5472616e73666572206661696c65640000000000000000000000000000000000600082015250565b6000610674600f8361047d565b915061067f8261063e565b602082019050919050565b600060208201905081810360008301526106a381610667565b905091905056fea2646970667358221220156b7606d783896ed9bb4158d8a4925ecdd21459e12e1308efda13d26fb0ed2f64736f6c634300081b0033a2646970667358221220b0ee1ba24a0e9f5993f2f49f012621b6628f685942eee84ba97914e606c4684664736f6c634300081b0033",
  "linkReferences": {},
  "deployedLinkReferences": {}
}