{
  "_format": "hh-sol-artifact-1",
  "contractName": "DonationVault",
  "sourceName": "contracts/DonationVault.sol",
  "abi": [
    {
      "inputs": [
        {
          "internalType": "address",
          "name": "_campaignContract",
          "type": "address"
        }
      ],
      "stateMutability": "nonpayable",
      "type": "constructor"
    },
    {
      "anonymous": false,
      "inputs": [
        {
          "indexed": true,
          "internalType": "address",
          "name": "donor",
          "type": "address"
        },
        {
          "indexed": false,
          "internalType": "uint256",
          "name": "amount",
          "type": "uint256"
        }
      ],
      "name": "FundsReceived",
      "type": "event"
    },
    {
      "anonymous": false,
      "inputs": [
        {
          "indexed": true,
          "internalType": "address",
          "name": "beneficiary",
          "type": "address"
        },
        {
          "indexed": false,
          "internalType": "uint256",
          "name": "amount",
          "type": "uint256"
        }
      ],
      "name": "FundsReleased",
      "type": "event"
    },
    {
      "inputs": [],
      "name": "campaignContract",
      "outputs": [
        {
          "internalType": "address",
          "name": "",
          "type": "address"
        }
      ],
      "stateMutability": "view",
      "type": "function"
    },
    {
      "inputs": [
        {
          "internalType": "address payable",
          "name": "_beneficiary",
          "type": "address"
        },
        {
          "internalType": "uint256",
          "name": "_amount",
          "type": "uint256"
        }
      ],
      "name": "releaseFunds",
      "outputs": [],
      "stateMutability": "nonpayable",
      "type": "function"
    },
    {
      "stateMutability": "payable",
      "type": "receive"
    }
  ],
  "bytecode": "0x608060405234801561001057600080fd5b506040516108e33803806108e38339818101604052810190610032919061014a565b600073ffffffffffffffffffffffffffffffffffffffff168173ffffffffffffffffffffffffffffffffffffffff16036100a1576040517f08c379a0000000000000000000000000000000000000000000000000000000008152600401610098906101d4565b60405180910390fd5b806000806101000a81548173ffffffffffffffffffffffffffffffffffffffff021916908373ffffffffffffffffffffffffffffffffffffffff160217905550506101f4565b600080fd5b600073ffffffffffffffffffffffffffffffffffffffff82169050919050565b6000610117826100ec565b9050919050565b6101278161010c565b811461013257600080fd5b50565b6000815190506101448161011e565b92915050565b6000602082840312156101605761015f6100e7565b5b600061016e84828501610135565b91505092915050565b600082825260208201905092915050565b7f496e76616c69642063616d706169676e20616464726573730000000000000000600082015250565b60006101be601883610177565b91506101c982610188565b602082019050919050565b600060208201905081810360008301526101ed816101b1565b9050919050565b6106e0806102036000396000f3fe60806040526004361061002d5760003560e01c806358ae05cd14610087578063d6e982e5146100b257610082565b36610082573373ffffffffffffffffffffffffffffffffffffffff167f8e47b87b0ef542cdfa1659c551d88bad38aa7f452d2bbb349ab7530dfec8be8f346040516100789190610357565b60405180910390a2005b600080fd5b34801561009357600080fd5b5061009c6100db565b6040516100a991906103b3565b60405180910390f35b3480156100be57600080fd5b506100d960048036038101906100d4919061043d565b6100ff565b005b60008054906101000a900473ffffffffffffffffffffffffffffffffffffffff1681565b60008054906101000a900473ffffffffffffffffffffffffffffffffffffffff1673ffffffffffffffffffffffffffffffffffffffff163373ffffffffffffffffffffffffffffffffffffffff161461018d576040517f08c379a000000000000000000000000000000000000000000000000000000000815260040161018490610500565b60405180910390fd5b804710156101d0576040517f08c379a00000000000000000000000000000000000000000000000000000000081526004016101c79061056c565b60405180910390fd5b600073ffffffffffffffffffffffffffffffffffffffff168273ffffffffffffffffffffffffffffffffffffffff160361023f576040517f08c379a0000000000000000000000000000000000000000000000000000000008152600401610236906105d8565b60405180910390fd5b60008273ffffffffffffffffffffffffffffffffffffffff168260405161026590610629565b60006040518083038185875af1925050503d80600081146102a2576040519150601f19603f3d011682016040523d82523d6000602084013e6102a7565b606091505b50509050806102eb576040517f08c379a00000000000000000000000000000000000000000000000000000000081526004016102e29061068a565b60405180910390fd5b8273ffffffffffffffffffffffffffffffffffffffff167f221c08a06b07a64803b3787861a3f276212fcccb51c2e6234077a9b8cb13047a836040516103319190610357565b60405180910390a2505050565b6000819050919050565b6103518161033e565b82525050565b600060208201905061036c6000830184610348565b92915050565b600073ffffffffffffffffffffffffffffffffffffffff82169050919050565b600061039d82610372565b9050919050565b6103ad81610392565b82525050565b60006020820190506103c860008301846103a4565b92915050565b600080fd5b60006103de82610372565b9050919050565b6103ee816103d3565b81146103f957600080fd5b50565b60008135905061040b816103e5565b92915050565b61041a8161033e565b811461042557600080fd5b50565b60008135905061043781610411565b92915050565b60008060408385031215610454576104536103ce565b5b6000610462858286016103fc565b925050602061047385828601610428565b9150509250929050565b600082825260208201905092915050565b7f4f6e6c792043616d706169676e20436f6e74726163742063616e2072656c656160008201527f73652066756e6473000000000000000000000000000000000000000000000000602082015250565b60006104ea60288361047d565b91506104f58261048e565b604082019050919050565b60006020820190508181036000830152610519816104dd565b9050919050565b7f496e73756666696369656e74207661756c742062616c616e6365000000000000600082015250565b6000610556601a8361047d565b915061056182610520565b602082019050919050565b6000602082019050818103600083015261058581610549565b9050919050565b7f496e76616c69642062656e656669636961727900000000000000000000000000600082015250565b60006105c260138361047d565b91506105cd8261058c565b602082019050919050565b600060208201905081810360008301526105f1816105b5565b9050919050565b600081905092915050565b50565b60006106136000836105f8565b915061061e82610603565b600082019050919050565b600061063482610606565b9150819050919050565b7f5472616e73666572206661696c65640000000000000000000000000000000000600082015250565b6000610674600f8361047d565b915061067f8261063e565b602082019050919050565b600060208201905081810360008301526106a381610667565b905091905056fea2646970667358221220156b7606d783896ed9bb4158d8a4925ecdd21459e12e1308efda13d26fb0ed2f64736f6c634300081b0033",
  "linkReferences": {},
  "deployedLinkReferences": {}
}